:020000040000FA
:1000000000040020B5010000D1010000D301000070
:1000100000000000000000000000000000000000E0
:10002000000000000000000000000000D5010000FA
:100030000000000000000000D7010000D90100000E
:10004000DB01000043360000DB010000DB010000A3
:1000500011140000DB010000DB010000DB010000E7
:100060001536000025360000DB010000DB01000032
:10007000DB010000DB010000DB010000DB01000010
:10008000DB010000DB010000DB010000DB01000000
:10009000DB010000DB010000DB010000DB010000F0
:1000A000DB010000DB010000AD1E0000DB010000F1
:1000B00005100000DB010000DB01000055280000F6
:1000C00000F002F800F04BF80CA030C808382418F3
:1000D0002D18A246671EAB4654465D46AC4201D180
:1000E00000F03DF87E460F3E0FCCB6460126334267
:1000F00000D0FB1AA246AB4633431847888D000058
:10010000A88D0000103A02D378C878C1FAD85207F7
:1001100001D330C830C101D504680C6070470000BD
:100120000023002400250026103A01D378C1FBD813
:10013000520700D330C100D50B60704710B5642959
:1001400002D100F075F810BD752902D100F070F8E9
:1001500010BD002010BD1FB51FBD10B510BD00F0B3
:1001600047FC1146FFF7F7FF04F026FF00F05FFCA5
:1001700003B4FFF7F2FF03BC00F066FC70B5054660
:100180000C46164602E00FCC0FC5103E102EFAD2D8
:10019000082E02D303CC03C5083E042E07D301CC9E
:1001A00001C5361F03E021782970641C6D1C761E82
:1001B000F9D270BD0C480D4901600D4901600D492F
:1001C00001600D4A0D491160002101600C48004793
:1001D000FEE7FEE7FEE7FEE7FEE7FEE709480A491D
:1001E0000A4A0B4B70470000000100505900000004
:1001F000160000008800000024000050A55A0000EE
:10020000C100000020120020000400202014002063
:10021000000000200FB4054910B503AA029800F0B1
:10022000A7FB10BC08BC04B0184700006404002001
:10023000F7B5002575291068009914A611D0C0469D
:10024000C046002802DA404211A608E00099096879
:100250008A0701D50FA602E0490704D50EA601259D
:1002600001E0C046C046009F0024243704E000F0AF
:1002700093FB30313955641C0028F8D12B463246A7
:100280002146009800F01CFBFEBD000000000000AD
:100290002D0000002B00000020000000F3B50446F4
:1002A000002081B020622046E168884700287AD08B
:1002B000252802D06268A16871E0E1682046002527
:1002C000884706460020E0610746A0612A2E0AD032
:1002D000304603F0C5F9002827D0B8000019303E99
:1002E0000090866119E00298BA00121902C8916163
:1002F00002902046E1688847012F064617D1E06941
:1003000000281FDA202085431CE000980A2180691C
:10031000484300998019303888612046E168884751
:10032000064603F09DF90028EFD1012F0AD02E2EAA
:1003300008D12046E16888470646202005437F1CF7
:10034000022FC3DBA069002803DA4042A06101202C
:100350000543E80701D010208543002E23D0304606
:100360004138192803D80120C00205432036204611
:1003700025603146029A1546FFF7E0FE00280BD0B3
:10038000012806D0ED1DE808C000083002908AE779
:1003900009E02D1D029586E762683046A168904706
:1003A000206A401C7EE7206AFEBD01E004C0091FF0
:1003B0000429FBD28B0701D50280801CC90700D01D
:1003C0000270704700290BD0C30702D00270401C96
:1003D000491E022904D3830702D50280801C891E8E
:1003E000E3E70022EEE70022DFE7002203098B4269
:1003F00073D3030A8B4258D3030B8B423CD3030CB9
:100400008B4221D312E003460B437FD400224308E2
:100410008B4274D303098B425FD3030A8B4244D3CC
:10042000030B8B4228D3030C8B420DD3FF2209020E
:1004300012BA030C8B4202D31212090265D0030BCD
:100440008B4219D300E0090AC30B8B4201D3CB03C3
:10045000C01A5241830B8B4201D38B03C01A524105
:10046000430B8B4201D34B03C01A5241030B8B4207
:1004700001D30B03C01A5241C30A8B4201D3CB02F2
:10048000C01A5241830A8B4201D38B02C01A5241D7
:10049000430A8B4201D34B02C01A5241030A8B42DA
:1004A00001D30B02C01A5241CDD2C3098B4201D3F2
:1004B000CB01C01A524183098B4201D38B01C01A70
:1004C000524143098B4201D34B01C01A52410309E7
:1004D0008B4201D30B01C01A5241C3088B4201D396
:1004E000CB00C01A524183088B4201D38B00C01A43
:1004F000524143088B4201D34B00C01A5241411A6A
:1005000000D201465241104670475DE0CA0F00D04C
:100510004942031000D34042534000229C46030945
:100520008B422DD3030A8B4212D3FC22890112BACB
:10053000030A8B420CD3890192118B4208D38901A3
:1005400092118B4204D389013AD0921100E08909BB
:10055000C3098B4201D3CB01C01A524183098B429C
:1005600001D38B01C01A524143098B4201D34B0185
:10057000C01A524103098B4201D30B01C01A5241E8
:10058000C3088B4201D3CB00C01A524183088B426F
:1005900001D38B00C01A5241D9D243088B4201D3F8
:1005A0004B00C01A5241411A00D2014663465241E3
:1005B0005B10104601D34042002B00D549427047E2
:1005C00063465B1000D3404201B50020C046C046E0
:1005D00002BD7047704770470346CA02400D10B510
:1005E00010430A1504D00124E4072043002A05DB48
:1005F0000A4CA21A04D4D040FF2A00DD002010BD0E
:100600004A00002B01D0012000E000201018012238
:100610005205D042F2D8C817C04310BD1E040000D6
:100620001F22030C02D10F22000402D0030E03D0BC
:1006300004E00020014670470002083A030F01D190
:100640000001121F830F01D18000921E002801DBE0
:100650004000521E120551184205C01241181046A2
:100660007047C10FC90700D04042012292071143D1
:10067000D6E701218907D3E7F0B58B4C0F09254652
:1006800089B0BD437BD01D092646AE43FAD00E4645
:100690005E402740F60F3E43254071D024012142A1
:1006A000FBD0FF24AD19A4042D1B039501252D05B6
:1006B000DB02DB0AC9022B43C90A29431E010901D7
:1006C000040F130F050121431701880B8203914387
:1006D0002D098C46A90B1E438A039543B30B9A033D
:1006E00096433F09BA0B9403A74302962E467E43D6
:1006F0000497B6464E19D7190C46019654430597F0
:100700007E43371B7646BF1B3601B646BE0B3619F5
:1007100000967646BC043719009C01D3641C0094F3
:100720006400002F01D001263443029E049F7543CC
:1007300066467E430496760034196E0034190094A0
:10074000029C019E1C196643751BAE4606946546C5
:100750004519059C05956C43594375460891691ADE
:100760000191049E01465143A41B0491611A009C0F
:100770000791E10605D061090122114302E072E010
:100780006EE06109089D00272C0A2D066918049D5A
:100790007C412A0A2D066918019D6241AC0DAD020B
:1007A0006D185441079A910D920255196141029AB0
:1007B000644658435443069B059A5A43121A131B26
:1007C0009A0E9B015B187A41010B0005C318514139
:1007D000220A200644195A419A4200D2491C01209B
:1007E0004002814203D315230226F64302E014237C
:1007F0000326F6432020C51AA9401746AF40DA4029
:100800000A4320460399D840091473181905511852
:10081000039A3843D2075140AC4009D0012294409A
:1008200006D30022401C5141002C01D14008400059
:100830001E4A934212D3012203989206904207DB8C
:100840000520400709181A480143C012414004E03E
:10085000032040070818C10FC907002009B0F0BDE8
:100860000020F107FAE705180C464C4111486D428B
:10087000A04115D394181A465A410E48644290413B
:100880000ED301204A004005824209D35A00824219
:1008900006D35940C90F084AC90700201143DDE7B4
:1008A00000200649DAE700000000FF07FE0700000D
:1008B000FFFFFF7F0000E0FF0000F07F0000F87FF7
:1008C000FFB504460D4681B02430009021688806AB
:1008D00004D51022E0699143216000E00120A84284
:1008E00001DD471B00E000270498A1697A19101860
:1008F000081AA0612078C00602D42046C046C0462F
:10090000002608E003986268A168805D9047206A2D
:10091000401C761C206204988642F3DB2078C006D7
:100920000AD52046C046C04606E06268A16830206D
:100930009047206A401C206238467F1E0028F4DC65
:1009400007E000986268A168405D9047206A401CFB
:10095000206228466D1E0028F3DC2046C046C046B3
:100960002078000602D5022005B0F0BD0120FBE78B
:10097000084B70B50D467B4400F027F80446284626
:1009800004F00EFB002802D00020C04370BD2046BA
:1009900070BD00002F46000001468008081A0209B9
:1009A0001018020A1018020C1018C0088200121841
:1009B0005200891A01E0401C0A390A29FBD270470B
:1009C00001694A1C02610878704700B58FB0029136
:1009D0000021059105490193794403911146049042
:1009E0006846FFF75BFC0FB000BD0000E5FFFFFFAE
:1009F000754600F025F8AE46050069465346C00826
:100A0000C000854618B020B5FFF7E8FB60BC0027A2
:100A10004908B6460026C0C5C0C5C0C5C0C5C0C5CA
:100A2000C0C5C0C5C0C5403D49008D46704710B522
:100A30000446C046C0462046FFF79AFB10BD0000A2
:100A400000487047BC11002001491820ABBEFEE7EA
:100A50002600020070470000C107C90F002908D016
:100A600000211C4A51611146096992031143194A38
:100A700011610221014000290BD0164989698022A9
:100A80001143144A91611146896902221143114AA6
:100A900091610421014000290BD00E49C9698022CF
:100AA00011430C4AD1611146C96902221143094A16
:100AB000D1610821014000290BD0074909690122B1
:100AC0001143054A11611146496901221143024A45
:100AD0005161704700000E4040000B400349896A95
:100AE000024A90620121D162704700000000084074
:100AF000014602200840002804D00C48806980226A
:100B00001040704704200840002804D00748C069FE
:100B100080221040F5E708200840002804D004484F
:100B20000069C007C00FECE70020EAE700000E40B4
:100B300040000B407047000010B5154B1B690023A7
:100B4000134C236101235B03984207D123461B69A1
:100B50000324640323430E4C236117E001231B038A
:100B6000984207D10A4B1B69052424032343084CF0
:100B700023610BE0074B984208D1054B1C69012308
:100B80009B030B4313431C43014B1C6110BD00002E
:100B900040000840FF0F000010B50446E2B20F20ED
:100BA0000002204001460548FFF7C6FF240B002243
:100BB0002146034800F03EFC10BD0000FF0F00007E
:100BC0004040005010B504460B48844201DA044608
:100BD00003E00A48844200DD04464B210801201846
:100BE000FFF711FC8406A40E054884624B20604385
:100BF0004B210901401A10BD50FBFFFFC50D00003D
:100C00004000084010B500200549087001F006FBBF
:100C1000002201218903034801F02AF910BD0000D8
:100C2000000400200040005010B50024064800F0E9
:100C300039FE012801D1601CC4B2002C01D0012072
:100C400010BD0020FCE700007804002010B5084823
:100C500001F096FF0748406807490968884201D8B3
:100C6000002010BD054800F00DFF0120F9E700004D
:100C7000AC0C00206C0400204C0400207804002000
:100C800070B51EA0FFF7C6FA00F05AF82348FFF728
:100C900083FF0120FFF7E0FE01202149486000BFEB
:100CA0000120FFF725FF0028FAD1002408E01C48A6
:100CB000006885B2FF20F53000F05CFA601CC4B219
:100CC000102CF4DD7D2149012846FFF78EFB1549E4
:100CD00008700846017814A0FFF79CFA0120C04371
:100CE0000F494860154800F045FA032000F094F9D8
:100CF00002F002FB00F03CFD70BD00000A0A3D3D21
:100D00003D204144432073696E676C65206D6F64BC
:100D1000652074657374203D3D3D0A00200002008B
:100D200000000E4001040020206576657261676551
:100D3000203D202825756C290A000000A0860100AE
:100D400070B52E4800F088F92D4800F085F92D483F
:100D500002F032FB2B48801C02F02EFB2A48406A2E
:100D6000400940011E30284948620846406A202157
:100D70000843254948620846406A40218843224981
:100D800048620846006A09218843062108431E4933
:100D900008620020FFF716FF04201B494039086055
:100DA0000020FFF79BFE0022114601204003FFF7C1
:100DB000C3FEFFF7BFFE1548C06800090001801C94
:100DC0001249C86000F072F906461149FFF70DFBA1
:100DD0000546C021FFF709FB0446E0B20B498860D5
:100DE00008460069C008C000C01D08610648406A86
:100DF000202188430449486270BD00001CFE034066
:100E00001E0000401C0000044000084000000E408E
:100E1000E02E000010B500200C49087000220C499B
:100E20000C4800F025FD002201210905094800F0C9
:100E3000A5FD002800D110BD01221021064801F0B7
:100E400017F801F049FB0120F5E70000020400203B
:100E5000D40C002078040020404000500EB510490A
:100E6000104800F0EBFDFF2341330F4A69460D485F
:100E700000F050FE002800D10EBD0022012109051E
:100E8000684601F0A7FD00221021084800F0F0FF9D
:100E900000200749087001F05DFD0120ECE700002B
:100EA000D40C002078040020E02E000040400050C8
:100EB0000304002010B501F071FC00221021074846
:100EC00000F0D6FF064800F055F901221021034832
:100ED00000F0CEFF01200349087010BD40400050D3
:100EE000400D03000204002010B501F063FD074827
:100EF00000F098FD01F022FE01221021044800F0CC
:100F0000B7FF01200349087010BD000078040020DD
:100F1000404000500304002010B50A4800F09CF83F
:100F2000002401E0601CC4B2202CFBDB00F00EF8B2
:100F3000054800F01BF8002401E0601CC4B2202C1E
:100F4000FBDB10BD12000040385100000649096863
:100F500008221143044A1160002001E0411C88B2BC
:100F60002028FBDD7047000040000B4010B5014613
:100F7000184A184B40331B680424A343154C4034D3
:100F8000236023461B6804242343124C403423600F
:100F9000002001E0431CD8B22028FBDD0D4B40337C
:100FA0001B68042423430B4C40342360002005E0DD
:100FB0008300CB5884001351431CD8B20F28F7DBB1
:100FC000044B40331B680424A343024C4034236089
:100FD00010BD000000000B4030B50FE04B1E99B271
:100FE000148805896B1C03816B004568EC52921CC8
:100FF00043894488A34201DB002343810029EDD1CA
:1010000030BD00000348C0680121890788430149B9
:10101000C86070478000084070B5044602F0E4F9EB
:1010200005460B4880680121890708430849886004
:101030000848406A40084000064948620846006A7D
:101040008008800020430862284602F0ADF970BD98
:101050000002005000000840810F8900064A8918EC
:101060004968C306DB0E01229A401143820F9200A9
:10107000014BD218516070470002005070B5044611
:1010800002F0B2F9054604480068204302490860AE
:10109000284602F089F970BD0002005010B502F038
:1010A00007FA0148006810BD0804002004480069E0
:1010B000402108408009800002490858704700001C
:1010C000000200501C040020F8B504460D461646E8
:1010D00002F08AF907460D480069472188432043FA
:1010E00028430A49086108460069C008C000204337
:1010F000086108468069000900013043886138466C
:1011000002F052F902F0D4F9F8BD000000020050DC
:10111000F0B50B460021002400258603360E002E74
:101120000FD00603B60FB600114FF51929688603D4
:10113000370E8605F60EB7400E46BE4316433146BF
:1011400029600601760F002E10D08600B60FB6007B
:10115000074F083FF41921680601770FC601F60E04
:10116000B7400E46BE431E4331462160F0BD00002D
:1011700018020050084909684143084A516100219A
:1011800091610521116100BF04490969012212041E
:1011900011400029F8D070470C04002000E000E066
:1011A0007047000070B5054602F082F90A490968E7
:1011B00088092946FFF719F90446002C00D10124BB
:1011C000FF2C00D9FF240548046100698101024811
:1011D0000068FFF70AF970BD08040020000007400E
:1011E00070B50546002461480078012800D170BD23
:1011F00001205E4908705E49681A8D4212D008DCF1
:101200005C482818002809D0012832D0022808D1CB
:101210005DE0012831D00228F9D161E056A0FEF747
:10122000F9FF9CE057A0FEF7F5FF00221021584877
:1012300000F01EFE57A0FEF7EDFF002001F01CF8A5
:1012400014E0534800690421084004280ED1FFF738
:10125000EBFC00280AD1FFF72DFE012210214C489B
:1012600000F006FE012001F007F800E0E9E700BF0A
:1012700075E04CA0FEF7CEFF71E04DA0FEF7CAFF6F
:1012800000221021424800F0F3FD012000F0F4FF9D
:10129000002001F0EFFA49A0FEF7BCFF05E0FFF7E0
:1012A000D5FC002801D1FFF71FFE3948006908214D
:1012B00008400828F3D101221021354800F0D8FD5C
:1012C00042A0FEF7A7FF012001F0D4FA47E042A0B8
:1012D000FEF7A0FF012210212D4800F0C9FD3EE0DD
:1012E00040A0FEF797FF42480078002836D017E06C
:1012F0000A2002F0BCF92046641C642810D30020A8
:1013000001F0B8FA05E0FFF7A1FC002801D1FFF7D2
:10131000EBFD1F480069402108404028F3D105E05B
:101320001B480069402108404028E1D100BF214608
:1013300030A0FEF76FFF0A2002F099F9012001F0BA
:1013400099FA0A2002F093F9642C07D200221021A6
:101350000F4800F08DFD002000F08EFF00BF00BFA1
:1013600000200249087000BF41E70000040400208B
:1013700003000020FDFFFFEF544733522E2E2E0AAC
:101380000D000000544733462E2E2E0A0D0000009B
:1013900040400050537461727420706C61790A0D82
:1013A00000000000544734522E2E2E0A0D0000007B
:1013B000544734462E2E2E0A0D00000053746172DD
:1013C00074205265632E0A0D0000000053746F7084
:1013D000205265632E0A0D00544735522E2E2E0AD8
:1013E0000D000000544735462E2E2E0A0D00000039
:1013F000020400204B657935207072657373206696
:101400006F722025642A31306D732E0A0D000000A2
:101410000648006A082108400449086204200121A6
:101420008140034A116000BF7047000040400050F7
:1014300080E200E070B5034600200FE00124844004
:101440000C40002C09D01C6846000325B540AC4375
:1014500046001546B5402C431C60401C1028EDD3B7
:1014600070BD000010B504460548005D0C214843DE
:1014700004494218CF21002000F086F810BD00007A
:101480003451000050500000FEB5032200213148C5
:10149000FFF7D0FF012200212E48FFF7CBFF0022EB
:1014A000CF212C484030FFF7C5FF012200212948F9
:1014B0004030FFF7BFFF2848FFF7CEFD002211465E
:1014C0002548FFF725FE64220121C906234802F0C2
:1014D00065F800BF214800680121490708431F49FA
:1014E000086000BF0920012181401D4A116000BF32
:1014F00000BF1A480068910508431849086000BFFA
:10150000084602F03BF80090FFF7B3F806460022C9
:10151000144BFFF7B1F80446FFF75EF880B2029073
:101520000E4802F02BF80090FFF7A3F804460E4A8D
:101530000E4BFFF7A1F80646FFF74EF880B2019078
:10154000029900F015F80020FFF78CFF0120FFF74B
:1015500089FFFEBD004000500700C05E2000014032
:1015600000E100E00000F03F9A9999999999A93F0C
:10157000034B36221A60034AD08011817047000065
:10158000804100505A04002030B50A4C636903437F
:101590006361084D40356B690B436B61064B1881E5
:1015A0005981246904409C8128690840D8815A6087
:1015B00030BD0000004000506411002070B5144D93
:1015C00014482A4629890C3200F028F811482A4686
:1015D00069890E32403000F021F82868002803D0D5
:1015E0000D4C2088002801D0012070BD00F054F877
:1015F000A97C002904D0012907D00229F5D101E0F6
:101600000221A9742189218070BD0021296070BD4B
:1016100064110020004000505A04002030B5002919
:1016200013D0002811D003690B40118859400CD009
:101630000D4C2568854209D1A57C022D06D0258A4E
:101640008D4203D100202060138030BD20601380C4
:1016500006482182C38803801088014201D00120FE
:1016600000E00020A07430BD641100205A04002066
:1016700007480068002808D006480188002904D0DF
:101680000188491E0180012070470020704700003A
:10169000641100205A04002070B5174A17491068D9
:1016A000884201D0012500E0002513490020496847
:1016B000148A937C18E016460A368E5DAE4211D12C
:1016C000164608368E5BA6420CD116460B368E5D4A
:1016D0009E4207D10C235843001D0858895888475B
:1016E000012070BD401CC0B20C2242438E58002E17
:1016F000E1D1002070BD00006411002000400050C6
:10170000FEB50646174903C901910090002500BFA8
:10171000314615480068FEF768FE074668006A46CD
:10172000115A3846FEF761FEC4B2082C03DB302C98
:1017300001DC012000E00020002800D004E0681C4B
:10174000C0B205460428E3DB00BF0848C0680009B2
:1017500000012907090F08430449C860E0B2886006
:10176000FEBD0000745100000804002000000E407F
:1017700010B52D48FFF770FC2C48FFF76DFC2C4886
:1017800001F01AFE2B48406A400940011E302949E9
:1017900048620846406A20210843264948620846B4
:1017A000406A40218843234948620846006A09216B
:1017B00088430E2108431F4908624B20C000FFF7F1
:1017C00001FA04201B49403908600020FFF786F920
:1017D0000022114601204003FFF7AEF9FFF7AAF9F6
:1017E00015480069C008C000C01D134908611148B0
:1017F000406A202188430F494862FFF78DFB012092
:10180000C0430D49486008464069012108430A4920
:101810004861084600694000400808610749002007
:1018200000F046FC10BD00001CFE03401E000040FE
:101830001C0000044000084000000E402402100676
:10184000012001494860704700000E400120C0435C
:10185000014948607047000000000E40C206D20EE9
:1018600001219140014A11607047000080E200E0D0
:1018700070B504460D46164609492046FEF7B3FDED
:101880003521490161180E74FF2095300551001D66
:10189000005D02210843FF219931085570BD000009
:1018A000B406000038B50446FF209930005D0221DF
:1018B0000840002801D0002038BD2046FF30993074
:1018C00000F0F0FC002855D0204600F0C9F90028AF
:1018D0000DD0FF209930005D02210843FF2199318E
:1018E00008550021FF20A53001530020E4E7FF2028
:1018F0009D300159801D005B40000D1835204001CE
:101900002018007C00011C49401880680090352098
:1019100040012018007C00010A461358FF20953032
:1019200001592A46204600F0A3F92046FF3099309D
:1019300000F06EFF352040012018807C8007800F6A
:10194000002817D0352040012018807CC007C00F28
:10195000002808D0FF21AD3108592A46FF21413126
:10196000FFF73AFB06E0FF20AD3002592946FF2081
:101970004130904701209FE72C500000F8B5044605
:101980000D461646352040012018007C0001244AEF
:101990001358FF20953001592A46204600F002F9DD
:1019A00080B2071E00D1F8BDFF2341332246FF322B
:1019B000B132590010461838009700F053FDFF204F
:1019C0009930005D02218843FF2199310855FF219C
:1019D0004131FF20A33001532046FFF763FF002869
:1019E00009D1FF209930005D02210843FF21993180
:1019F00008550020D7E7FF214131FF20A1300153D6
:101A00003520400120184674352149016118487C71
:101A10002146FF31993100F0BFFB0120C3E70000F0
:101A20002C500000212189014118097A022211431A
:101A300021229201821811727047000070B504468D
:101A40000D460F492046FEF7CEFC29200001201844
:101A50000B49283961184860002009492839611864
:101A600088810120C00220180563212080012018F0
:101A7000007A02210843212189016118087270BD92
:101A80005C080000F8B50546212080012818007A7E
:101A900002210840002801D00020F8BD1C482E1863
:101AA0001B4814302C1826E071897068431821896E
:101AB0004900606842180120C0022818006B0146E6
:101AC0000090284600F052F907467189C81980B283
:101AD00070810F4969184988884201DB00207081B4
:101AE0002089FF30413080B220810521C901884220
:101AF00001DB00202081208961898842D4DC608953
:101B00002189401AFF2141318842CDDA0120C4E702
:101B100034080000F8B504460D4616461F46052059
:101B2000C001874201DC002E01D10020F8BD6E808B
:101B3000AF6068880090288983B20120C002201815
:101B40002A46016B204600F001F900201449611873
:101B50004881134961180881A8684003000C1049A6
:101B60006118C8810E482018C0894004000C0C4937
:101B7000611848806888FF234133009033200001BA
:101B80002218590006481430201800F0C7FE698852
:101B900003481430201800F05FFE0120C6E7000063
:101BA00034080000F0B583B01E461546044600F028
:101BB000E6F80C2229466846B0470C2809D1684649
:101BC00001882046FF3001228130412904D040297C
:101BD0000AD0002003B0F0BD017B114300228273C4
:101BE000F1221140083102E0017B490849000173EC
:101BF0000298608128460C3020610199411861618A
:101C00002060164801680368592216268827012B90
:101C100005D00260066007600368012BF9D10368F4
:101C2000012B15D1002303600368002B10D101297B
:101C300008D10168012905D00260066007600168CB
:101C40000129F9D1052000070068000E1D2800D0E9
:101C500025616846408803B0F0BD000000010050D7
:101C600001694069814201D200207047012070471C
:101C7000FFB50546FF3504468135287B81B0C10795
:101C80004BD00007400F04281CD120460122FF3012
:101C9000049B8E30216998472169491C2161687B2A
:101CA000002809D042002046FF30049B16466D30C4
:101CB0009847206980192061287BF121084028730A
:101CC0000020A873687B00281FD0AE7B71000F191D
:101CD000FF376D37B04217D90020385E2A7B0106E6
:101CE0001207890F520F91420ED10A99002905D08F
:101CF0008106890E00040A9A000E9047761C687BC4
:101D0000B6B2BF1CB042E7D8AE73287B0421C841ED
:101D1000C90640181C21C84128736089049B4005EE
:101D2000050E2A46216960689847A84202D0002023
:101D300005B0F0BD2169081820612046039A029978
:101D400000F035F8FF20413005B0F0BDF8B51D4674
:101D500014460746069E00F043F840202080668027
:101D60000020C043A56060607D81F8BD10B50446C9
:101D7000436000F03FF80A20205EC01010BD10B490
:101D8000E031416000210346C1811C330A469F2196
:101D90004C00491E09B21A530029F9DAFF305D30B0
:101DA0000121018041808180C18010BC704770B5E5
:101DB000044640680E46A06101882046FF3061302D
:101DC000C18000218180618901811546314620460C
:101DD00001F00AFF2A463146204602F021FD70BD7F
:101DE000103000229F218B00491E09B2C2500029E9
:101DF000F9DA704770B50C46054602F015FE21462B
:101E0000284602F057F870BD10B501220F210903D2
:101E10001648FFF70FFB0122302114484030FFF72E
:101E200009FB002201210903104800F021F80022DB
:101E3000012149030D4800F01BF80022012189030C
:101E40000A4800F015F800220121C903074800F0F4
:101E50000FF8012210210548403000F009F8002257
:101E600020210248403000F003F810BD004000502F
:101E7000012A03D183680B43836002E083688B43AC
:101E80008360704710B50302024C1A19136A8B4322
:101E9000136210BD0080005010B50302024C1A19E5
:101EA000136A0B43136210BD0080005010B50C483C
:101EB000406A02210840002805D0022008494862F3
:101EC000084800F0FFF90848406A0221084000284D
:101ED00005D0022004494862044800F0DFFC10BD30
:101EE0000081005024110020008000503411002097
:101EF0000349096802021143014A1160704700005A
:101F0000008F0050F0B5059C0602064FF519696078
:101F1000AB602E68F027BE43174627433E432E6032
:101F2000F0BD00000080005030B503461C020F4D8C
:101F3000601904680325ED04AC430C4304600029D8
:101F400008D00124E4040C1B07D00125ED04641B18
:101F500008D104E09400C46005E0C26003E05400CE
:101F6000C46000E000BF00BF30BD00000080005032
:101F700010B50302034C1A1913680C24A3430B4336
:101F8000136010BD00800050F0B51C4600250B000A
:101F900001F058FB080D05342A20163D4751334BFC
:101FA0005B681B091B010343304E73605CE02F4BE1
:101FB0005B68F026B343060133432C4E736053E055
:101FC0002A4B5B680F263604B34306043343274E7F
:101FD000736049E0254B5B680F263605B343060561
:101FE0003343224E73603FE0204B5B680F2636067A
:101FF000B343060633431D4E736035E01B4B5B68ED
:102000001B011B0906073343184E73602CE0174B66
:102010005B680F263602B34306023343134E7360E8
:1020200022E0124B5B680F263603B34306033343AB
:102030000E4E736018E0002513E00C4B5B68AF0098
:102040000F26BE403340AE000746B740BB4207D123
:10205000064B5B68AF000F26BE403343034E7360F0
:102060006D1C082DE9D300BF00BFF0BD008F0050EC
:102070000202034BD1180A68024B1A430A607047E8
:10208000008000500100800010B50120FEF7E4FF41
:10209000022001F091F91A20FFF7E0FB1A2001213C
:1020A0008140024A116000BF10BD000000E100E065
:1020B0007CB505460C462802224946180A200190A4
:1020C0000121A9400846FFF713FF306802210843A9
:1020D000306000BF0198411E01910028FAD1210E05
:1020E00000231A462846FFF74FFF2046C02108402C
:1020F0000090302020400246002319462846FFF772
:1021000001FF0320C0042040014600222846FFF7BB
:102110000BFF0C20204001462846FFF729FF3068BE
:102120000F21090321400843306007482902054A6E
:10213000891848620F2000022040010A2846FFF754
:10214000ABFE7CBD0080005003050000F8B50446DE
:102150000D4616461F4620020749401845602002DA
:10216000401886603A4649012046FFF7DDFE2046CA
:10217000FFF77EFFF8BD0000008000500102054A15
:1021800089180968490849000202024BD2181160F7
:10219000704700000080005070B505460E46012DC6
:1021A00000DB70BD02210120FFF76CFE09480660CC
:1021B00000688489002C02D100F0F0FA07E0214683
:1021C000002001F07BF802210120FFF765FE00BF2F
:1021D000E7E700002804002030B50346DC000E4D80
:1021E00060190024C4808280002906DD0478641808
:1021F0000D2C02D30C2444700CE0002907DA04787B
:1022000064B26418002C02DA0024447002E00478FE
:102210006418447030BD00003004002010B5002464
:102220000BE0A0000B49085801218902884202D125
:102230000948047003E0601CC4B20D2CF1D300BF48
:10224000002404E0204600F0FBF8601CC4B2012C1E
:10225000F8DB10BD7C510000380400200246D0009D
:10226000044BC11808784B78984201D00020704781
:102270000120FCE73004002010B50446084800782F
:1022800004210840002800D010BD002C04D1FEF726
:10229000F7FCFEF7BFFD01E0FEF70CFE00BFF3E721
:1022A00000040020014648890A89904205DC08891B
:1022B0004A89801ACA89904201DB012070470020B8
:1022C000FCE7000070B5054600243A480078002875
:1022D0006DD039480068002828D03648007802219F
:1022E0000840002822D134480068007808210840BE
:1022F000002810D1304800680089001D80B22E49A6
:10230000096808812C4909684988884203DB002054
:1023100029490968088128480068406826490968F1
:102320000989490040182549086029E023480168C7
:102330000620085E2149096888802049096848808C
:102340001E49096808801D4800680088002817D1C8
:102350001B48007800280ED10120FFF70FFF154819
:10236000007802218843134908700220144908703C
:102370001248006870BD12480078401E104908706D
:1023800000BF60000D4A12688118002000F01CF8A0
:10239000601CC0B204460428F3DB0423094A074842
:1023A00001680120FFF7D2FE04480068E2E7002040
:1023B000E0E7000024040020280400202C04002072
:1023C000390400200C00074070B506460D46F000A9
:1023D000184944183046FFF741FF00281AD1A08859
:1023E000002802D16078207014E0E088A18888423B
:1023F0000DDB0020E08020786178884203DD2078C2
:10240000401E207006E02078401C207002E0E0882A
:10241000401CE080207808490978884209D00020D3
:10242000285E21788900054A51584843800A00B245
:10243000288070BD30040020380400207C5100004A
:102440000146CA00054BD018054A12780270044AAA
:1024500012784270024A127882707047300400206D
:1024600038040020F8B504460D4616461F461421D0
:102470002046FDF7B8FF6580E78166600698A08179
:102480002078022188432070628851006068FDF73F
:10249000A8FFF8BD70B505460E46012D16DA0024DA
:1024A00012E0A0000A490858B0420BD1E800094ADE
:1024B000105C201A41B2FF222D322846FFF78CFE15
:1024C000012070BD601C44B20D2CEAD30020F8E757
:1024D0007C5100003004002010B59E480078002890
:1024E00076D19D48006840689B4909680989490080
:1024F00044189A480078082108439849087095487C
:1025000000780121084393490870002005E000216C
:102510004200934B9952411CC8B20828F7DB0020B7
:10252000FFF78EFF8F480078072809D18E490020D9
:10253000FFF7B0FF8B4801788CA0FDF76BFEFFE042
:1025400088480078062809D18E490020FFF7A2FFAD
:102550008448017885A0FDF75DFEF1E081480078B0
:10256000052809D188490020FFF794FF7D480178AC
:102570007EA0FDF74FFEE3E07A480078042809D1F9
:1025800082490020FFF786FF7648017877A0FDF7A3
:1025900041FED5E07348007803280AD17B49CD3944
:1025A0000020FFF777FF6F48017870A0FDF732FE3B
:1025B000C6E06C48007802280BD115218901002063
:1025C000FFF768FF6748017868A0FDF723FEB7E0D2
:1025D000BEE064480078012809D16D490020FFF76A
:1025E00059FF6048017861A0FDF714FEA8E05D483E
:1025F0000078002809D101218902FFF74BFF5948D3
:1026000001785AA0FDF706FE9AE056480078102897
:102610000AD1B52189000020FFF73CFF514801781D
:1026200052A0FDF7F7FD8BE04E4800780F2809D146
:1026300058490020FFF72EFF4A4801784BA0FDF7CC
:10264000E9FD7DE0474800780E280AD1FF2144319A
:102650000020FFF71FFF4348017844A0FDF7DAFD93
:102660006EE0404800780D2809D1B6210020FFF720
:1026700011FF3C4801783DA0FDF7CCFD60E03948F2
:1026800000780C2809D166210020FFF703FF3548A8
:10269000017836A0FDF7BEFD52E0324800780B28E5
:1026A00009D139210020FFF7F5FE2E4801782FA02F
:1026B000FDF7B0FD44E02B4800780A2809D120211D
:1026C0000020FFF7E7FE2748017828A0FDF7A2FDCC
:1026D00036E024480078092809D112210020FFF7AC
:1026E000D9FE2048017821A0FDF794FD28E01D487F
:1026F0000078082809D112210020FFF7CBFE1948E5
:1027000001781AA0FDF786FD1AE016480078072820
:1027100009D100210846FFF7BDFE1248017813A039
:10272000FDF778FD0CE00F480078082808D100215B
:102730000846FFF7AFFE0B4801780CA0FDF76AFDD5
:1027400000F016FE0823144A21460120FFF7FEFC84
:1027500010BD0000240400202804002000040020F4
:102760002411002001040020A60C0000675F6164B2
:1027700063565232766F6C756D65203D2025640A74
:1027800000000000190A0000FB07000073060000AB
:10279000D9040000010200000C00074010B51948E0
:1027A000007801282DD11848006800281BD002218C
:1027B0000120FFF767FB1348007802210843114905
:1027C00008700020FFF73CFE0A21002000F02CF8E2
:1027D00002210120FFF760FB00BF0A4800780221B8
:1027E00008400028F9D10748007840084000054912
:1027F000087006480078082188430449087000F0F2
:10280000C9FD10BD240400202C0400200004002079
:102810004189C289891889B241814288914201DB8C
:10282000002141817047000070B505460E46E80062
:10283000074944182078002808D02078A070207814
:10284000404241B232462846FFF7C6FC70BD000048
:10285000300400207047000070B505460C4604485F
:102860000560002C02D02046FEF74AFF70BD000034
:102870004004002010B50446074800780A210840AB
:10288000002800D010BD002C02D1FEF7E7FA01E0CD
:10289000FEF72AFB00BFF5E70004002010B5044650
:1028A0001B4800680078C007C00F00281DD11848D9
:1028B0000068408908301649096848811448006852
:1028C0004089134909684988884203DB0020104980
:1028D000096848810E48006840680D4909684989BF
:1028E000490040180B49086009E0094909688868EF
:1028F000074909684B6807490A680821984708236F
:102900000448054902680020FFF720FC10BD0000C4
:10291000400400203C04002000000E40F8B50446AE
:102920000E4617461D4614212046FDF75CFD00208B
:10293000207066806760208165810698A081E581AE
:10294000207802218843207069006068FDF749FD06
:10295000F8BD000010B51248007804210843104962
:102960000870104800680078C007C00F00280AD11E
:102970000C48006840680B490968498949004018BB
:102980000949086002E00948074908600823064829
:10299000074902680020FFF7D9FBFEF751FF10BD81
:1029A00000040020400400203C04002034110020DA
:1029B00000000E4010B50648007804218843044901
:1029C00008700020FFF7DAFBFEF740FF10BD0000A3
:1029D0000004002070B506460C4615460548046004
:1029E0002946204600F008F80C21304600F036F861
:1029F00070BD000050040020F8B504460D460E4896
:102A0000056000200D4908800D4804602005000D78
:102A1000002810D00B4E2001070C01200090380335
:102A2000012252071043014652143046009B00F029
:102A3000D7F800BF00BFF8BD5404002044040020B4
:102A40004C0400206C040020024B1980024A1060E4
:102A500070470000440400204804002070B504467C
:102A60000D4629462046FFF7EFFF00BF00F004F8AF
:102A70000128FBD070BD000070B52A4800F09BF81B
:102A8000012800D170BD28480068002802D02648DF
:102A90000068804725480088002800D1F2E72448D4
:102AA00000880005000D002815D122480078012873
:102AB00011D01C4D1E4800680001060C3003012295
:102AC000520710430146284600F09EF800BF01203F
:102AD00018490870D6E700201649087014480168A4
:102AE000104800F052FB1148038813480268104850
:102AF00001680C4800F0BAFA04460A4800F039FBB5
:102B00000A480088001B094908800B480068001922
:102B10000949086006480068001905490860012055
:102B2000B0E700006C04002054040020440400209E
:102B30004C04002058040020480400200EB500BFBB
:102B4000FFF79AFF0128FBD00C236A460948016869
:102B5000094800F065F90948006806490968401A03
:102B60000C3801900C236A4602480168024800F0C4
:102B700061FA0EBD500400206C0400204C040020BB
:102B800010B50446FFF778FF002813D1208961892A
:102B900088420FD023896268D018E189FFF754FF7B
:102BA0002089E189401880B220816188884201DB58
:102BB0000020208110BD00B5002100F0FCF9C00705
:102BC000C00F00BD10B50446012907D0042108221A
:102BD00000F0FEF9204600F024FA10BD0621F6E7C9
:102BE000F0B51C4616460D46074607E0294638460E
:102BF00000F00AF8AD19384600F013FA2046641EBA
:102C0000A4B20028F2D1F0BD30B50C460546012132
:102C1000FFF7D8FF20222146284600F0D9F930BD21
:102C2000F8B504460068002581682F468908227A95
:102C300089001143816020680168F8229143C03106
:102C4000016020680168032212029143FF310131C3
:102C5000016009202168000508622168002048629F
:102C60002068016801221143016020680168C9439E
:102C7000C907FBD04169CEB209040A0E00928168EF
:102C80008908890081609F2120220906204600F0E2
:102C90009FF920680069009A0102090E914210D143
:102CA000421E0004000ED2B2EF2903D0202530329C
:102CB000D6B20DE012181025D6B2202808D101276F
:102CC00006E01F2904D1C004C00E801EC6B24025F4
:102CD000002E16D03007000F072812D80122520408
:102CE0008240300900016260002F01D001200CE019
:102CF000402809D00722502809D01028F6D01F29D3
:102D000005D000206060F8BD0320054300E01543B6
:102D10006572F8BD38B505200007806B000A000217
:102D200055300521090788631748FEF795F91748BC
:102D300000F042FB164B174A0121174800F02EF80D
:102D40000021134800F062F80020054604460EE01A
:102D500002236A4600210E4800F062F868460088A7
:102D6000854203D068460588002400E0641C642C7A
:102D7000EED10748FFF754FF05484068002800D10E
:102D800038BD0120FCE700000C0000400C000004EE
:102D90006C040020001BB7000000034038B5197216
:102DA00018601C460025134604222946009500F0B1
:102DB00025FA20680168012292029143016020688F
:102DC00001689202914301602068016803221202A7
:102DD0009143016020680168F8229143403101600D
:102DE00020688168042291438160206801680F2275
:102DF0001203914301229203891801606560657294
:102E00002068816889088900816038BD00B5002983
:102E100001D0B92100E0AB21082200F0D9F800BDB3
:102E200070B51D461646044600F08EF82A46314617
:102E3000204600F004F8204600F07AF870BDF0B5A6
:102E400003681C6803252D02AC431C608B079B0F95
:102E5000F824002B25D00425EB1A934200D9D3B2D5
:102E600006683768A743042B21D0DD00ED002F430F
:102E7000376005682E6801273E432E600568D21A28
:102E80002E68F643F607FBD02D690D70491C022B06
:102E900002D32E0A0E70491C032B02D32B0C0B708D
:102EA000491C03681D68A5431D6001250DE0002530
:102EB000DCE703681E682E431E6003681E68F64345
:102EC000F607FBD01B69121F08C1042AF1D2002AA1
:102ED0001ED006683768D300A743202B00D10023FB
:102EE000DB001F43376003681C682C431C600068CC
:102EF0000368DB43DB07FBD000690870491C022A2A
:102F000002D3030A0B70491C032A01D3000C08707A
:102F1000F0BD000070B505460E46144623462A460D
:102F200031460248FFF77CFF204670BD6C0400204C
:102F300001688A68920892008A600068016801222C
:102F4000120591430160704730B502689368047AB6
:102F50009B089B002343936002681468F8239C43FA
:102F600014600268146803252D02AC431460090242
:102F70000B22090A120689180268116201680A68A0
:102F8000012422430A6001680A68D243D207FBD0B9
:102F90000A689A4340320A6001680A6822430A605C
:102FA00000680168C943C907FBD001680122120506
:102FB0001143016030BD10B50446052001430902EC
:102FC0001022204600F004F820680069C0B210BD4D
:102FD00030B503689C68057AA408A4002C439C6063
:102FE00003681C68F825AC43202A00D10022D200D7
:102FF00014431C600268136803242402A343136073
:103000000268116201680A6801231A430A600068B5
:103010000168C943C907FBD08168890889008160BC
:1030200030BD10B5044600212046FFF7C4FFC0079D
:10303000F9D110BDF0B51C4615460E46074612E004
:103040003146384600F0A1F823462A463146384634
:1030500000F00CF836182D18241A384600F089F8BC
:103060003846FFF7DEFF002CEAD1F0BDF0B5056869
:103070002C6803263602B4432C60FF2401340D066D
:103080002D0E01D0C9B2641A9C4200D91C462546B7
:1030900091072CD09107890F0423591AA14200D916
:1030A000294606683768F8239F43CB00202B00D1C0
:1030B0000023DB001F4337601378521C022903D31F
:1030C000167836023343521C032903D1167836048E
:1030D0003343521C0668336203681E6801273E436F
:1030E0001E6003681E68F643F607FBD0641A016889
:1030F0000B68F826B3430B6001680B6803273F0297
:10310000BB430B6001230CE002CA07683962016807
:103110000F681F430F600168241F0F68FF43FF07FC
:10312000FBD0042CF0D2002C21D001680F68B743EB
:10313000E600202E00D10026F60037430F601178FC
:10314000521C022C03D3167836023143521C032C36
:1031500002D11278120411430268116201680A68F0
:103160001A430A6000680168C943C907FBD02846B2
:10317000F0BD01688A68920892008A600068016860
:103180000122120591430160704730B50D46044697
:103190000121FFF717FD20688168227A89088900DC
:1031A0001143816020680168F82291430160206822
:1031B0000168032212029143016001204006054389
:1031C00020680562206801680122114301602068BF
:1031D0000168C943C907FBD00168012212051143E8
:1031E000016030BD70B50446FDF758FF06466068C3
:1031F00085B27008691CFDF7F8F870BDF8B5044693
:103200000D4616461F462846304320602046069944
:1032100000F030F83946204600F004F82046FFF769
:10322000E1FFF8BDF8B504460E46FDF737FF074647
:103230000F4D002E14D078003146FDF7D6F8401C13
:103240008008451E0A48854201D9054602E0002D46
:1032500000D101256068000C00042843606001E093
:1032600000206060681C41003846FDF7BEF8F8BDDC
:10327000FFFF0000F8B504460E46FDF70FFF0746B6
:103280000D4D002E14D031463846FDF7AEF8401CE7
:103290004008451E0848854201D9054602E0002D38
:1032A00000D10125606880B229040843606001E014
:1032B00000206060F8BD0000FFFF000070B505460B
:1032C0000C46214609480068FDF78FF8C004C00885
:1032D0003221084306490968064A11400843044957
:1032E00008602046FDF75EFF70BD00000804002066
:1032F00040000B408FFF00E010B51948FDF7ACFE11
:10330000002210211648FDF703FF164800F054F87C
:10331000FDF746FF14480068C008C0001249086065
:10332000FDF7FAFD0120104988601049FEF7C0FE44
:1033300005200007806B0321090688430121490607
:1033400040180521090788630846806B0321890618
:1033500088430121C906401805210907886310BD6B
:103360000D0040520D0000040000074088021007C5
:10337000002004E00021064AD160411CC8B2102898
:10338000F8DB0349096840221143014A1160704784
:103390000000074003480068402188430149086055
:1033A0007047000000000740002802D00021014AB9
:1033B0001160704700010050010E052212078918A4
:1033C0008968012282401143020E05231B07D2188F
:1033D0009160010E1A4689188A68012181408A434A
:1033E000010EC9188A6070470A480068C007C00FFC
:1033F000002801D00020704706E0592005490860E8
:103400001620086088200860024800680128F4D16E
:1034100000BFF0E70001005000B50346184600F079
:1034200001F800BD00BF0B4989690122D205114096
:103430000029F8D1074908600A280AD100BF0549C8
:1034400089690122D20511400029F8D10D21014AD4
:10345000116070470000054070B505460E20FDF76D
:103460000DFE1148854207D1002240211046FDF78C
:103470002BFE7D20800470BD29460C48FCF7B5FF6B
:10348000041E01D1012402E0102C00D91024621E78
:1034900000210846FDF718FE21460448FCF7A5FF69
:1034A00005462846E7E700000048E8010000EE0274
:1034B00070B5124800694007C00E11490C581148F8
:1034C000844207D10D4800694021084080098000EE
:1034D0000D490C58094880690007000F451C294612
:1034E0002046FCF782FF094908600949074800683F
:1034F000FCF77BFF0749086070BD00000002005028
:10350000100400200000EE021C040020080400202B
:1035100040420F000C04002030B585B0054614224F
:1035200012496846FCF72AFE1148854206D1114827
:103530004069072109020840040A0DE00C482030C8
:10354000854206D10B484069072109030840040B56
:1035500002E0002005B030BD022C02D10648006810
:10356000F8E7A00069460858F4E70000B0510000F1
:1035700000000140000200500804002070B504461D
:103580002046FFF7C9FF054660682268D2B2521C88
:10359000504301462846FCF728FF70BDFEB505469E
:1035A0000F4616462846FFF7B7FF04460020019055
:1035B00000906008B04202D2022001901BE001207E
:1035C0008006844203D307200090E4080EE0012027
:1035D0004006844203D303200090A40806E00120A3
:1035E0000006844202D30120009064083146204640
:1035F000FCF7FBFE01900098384328600198686052
:10360000009A521C0198504301462046FCF7EDFEFB
:10361000FEBD000000BF01200149886000BF704767
:103620000000014010B500BF01200349886000BFC1
:10363000FEF71EF810BD00002000014002460020E9
:103640007047704730B47446641E2578641CAB42E2
:1036500004D3635D5B00E31830BC18471D46F8E7F0
:1036600030380A2801D2012070470020704710B579
:10367000044603E07D20C000FDF77CFD2046641E6B
:103680000028F7D110BD0000F0B503461020185EE9
:10369000FF2141318DB0884207DD401A810040187A
:1036A00000B2C010FF30413018821846C43000907C
:1036B00098601F20C0438446188A2024203800B216
:1036C000019018464C308646604600199E6805B247
:1036D00071460D220888891C281A00B2401001D5B5
:1036E000002002E0072800DD07203080521EB61CB3
:1036F00012B2002AEEDA834E002299680E200027CB
:10370000CF5F401EF757891CBA1800B212B20028CA
:10371000F5DC0198824200DBAC466410002CD3DC5F
:10372000194660463031988174460A4606B20D2526
:103730002088A41C301A00B2401001D5002002E0FD
:10374000072800DD072010806D1E921C2DB2002D71
:10375000EEDA1846683303600346A8334360009CE2
:1037600084602346674C00220991A6464768944628
:10377000062400268E5F7546AE570225B4444D5F81
:10378000764675570E68654440C340C9641E2DB225
:1037900040C724B2AC46002CEBDA10230495039307
:1037A000018A490009B20C910168059181680B9169
:1037B00041680A91534900910C21415E06910E2106
:1037C000029101464C3108911A31079104990C9CE1
:1037D000614409B2A14232DC63218E468568089CAF
:1037E000002100260027AE5FE75FAD1CA41C002E61
:1037F0000ADD76000196069EF71B019EBF1B3FB2B5
:10380000774501DABE460A46491C09B20E29E8DBB3
:103810005B1E1BB205995C000A530B99540061189A
:1038200000240C5F009D2E57641E24B20C8000996A
:1038300065460957AD1B491909B28C4636E062212D
:103840004468C9438E461A34079D0D21002700267F
:10385000EF5FA65FAD1EA41E072E0ADA7600019662
:10386000069EF71B019EBF1B3FB2774501DDBE469A
:103870000A46491E09B20029E8DA03994C00059965
:103880000A5303995400491C09B203910A99009DF7
:10389000611800240C5F2E57641C049D24B20C8018
:1038A0000099AD1B0957491909B204910299491EA3
:1038B00009B20291002989DA826809991446F0CC8C
:1038C000F0C155691469103992694D610C618A61C2
:1038D000026812300F215C00145B5B1C04801BB279
:1038E0005C00145B5B1C44801BB25C00145B848036
:1038F0005B1CC91E801D09B21BB20029EBDC0DB098
:10390000F0BD00007C8E0000F7B52D48029A864677
:10391000012080030199844620250023704600245D
:1039200000260C5F865F0227744302268E5FC75F06
:103930005B1C7E433419042604278E5FC75F1BB2CD
:103940007E433419062606278E5FC75F7E433419EF
:10395000082608278E5FC75F7E4334190A260A2788
:103960008E5FC75F7E4334190C260C278E5FC75FBE
:103970007E4334190E260E278E5FC75F7E433419AF
:10398000102610278E5FC75F7E4334191226122738
:103990008E5FC75F14307E4334196444E41314808F
:1039A000921C0A2BBBDB6D1E14312DB2002DB4DC32
:1039B0000522D20102990198FCF7E0FB03B0F0BDAB
:1039C00062540000F7B590B04F4810210590029165
:1039D0001420490204220C92119A0392129A019225
:1039E000029A0B924208520040000F920090039AF4
:1039F0000F98009B801884460098801803900198C7
:103A00001B181C460193059B1B680026965F0A96AF
:103A1000921C0027D75F099765460026AE5F049683
:103A2000AD1C0027EF5FAD1CAC46079700255D5F1E
:103A30009B1C0027DF5F9B1C00269E5FAE46069600
:103A40009B1C00255D5F08950A9E75467543049E84
:103A5000921C7E43AD1B6D18AD1305800A9E754602
:103A60007743049E801C75437D196D18AD13A61E07
:103A70003580099F069E089D7E43079F9B1C7D43C2
:103A800075196D18AD130580099F089D069E7D432D
:103A9000079F801C7E43AD1B6D18AD13241F25802E
:103AA000A042B2D30B98401E00B20B9000289EDCBF
:103AB000129A11981192029A129052100292059A3B
:103AC0000098121D05920C9A00B2521E12B20C926E
:103AD000002A81DA109B0E4DFF3375330B4EEC43F9
:103AE000FF2140314A00985E7756C019A84201DD97
:103AF000284602E0A04200DA2046491E09B2985248
:103B00000029EFDA13B0F0BD2C550000405500003D
:103B1000FF7F0000FFB5FF3084B075300090FF20BC
:103B2000413001902F48052384460022DB01009894
:103B30008E465B180025455F801C00246646045FA6
:103B4000B6562F19F61976100E80521C12B2664620
:103B5000B656521C75192C1B64109B1E801C891CA8
:103B600012B21C809942E5D300987146F44686460D
:103B700001984010019002200090032002900198CB
:103B8000009F40000B4676460390039930460E187E
:103B900032461C889B1C1D88921E61190180611B86
:103BA0009B1C801C11809042F3D37F1E3FB2002FDC
:103BB000EBDC60467146F446864601984010019061
:103BC0000098400000B200900298401E00B202909F
:103BD0000028D4DA084606990860079970460860FC
:103BE00008B0F0BD22530000F3B58DB00E9A0D99C8
:103BF0001046143000920190D06008460023042241
:103C00001024FF3061308588002D06D18D692D8804
:103C1000C5808D69AD1C8D618480858806266D1EEA
:103C20008580865F2E41F507ED0F5B00EB18521E75
:103C300012B245811BB2002AE5DA009ADB1FD26876
:103C40001380921C9446984A029202892E23521F96
:103C50000D2512B2AE4600246400E41825B2848813
:103C6000002C07D18C692488C4808C69A41C8C61C9
:103C70001024848084880626641E8480865F264102
:103C8000F407E40F4481029E521E7519645712B264
:103C9000002CE1DC644265462C806446A41CA446EA
:103CA0007446641E2E3324B21BB2A646002CD2DC0E
:103CB00002810098019AC2604C3013880B25ED43B5
:103CC0000380921C06460D2304881788801CE41983
:103CD00064195B1E921C1BB20480002BF4DC0020D4
:103CE000724F344602460D252388A41C18331BB29C
:103CF000834200DD18465B00FB5A6D1E9A182DB2F8
:103D000012B2002DF0DA092306E05B1E801E1BB202
:103D1000521000B2002B03DB082AF6DA1C28F4DC70
:103D200058008B81183003B20098604CFF30593036
:103D30000D213288491ED21812B25200A25A0280B6
:103D4000B61C801C09B20029F3DA0020694688827B
:103D500005AA04210D9800F05DFB69460E98898A3A
:103D6000C1810D9CFF3461342089001F20810E9990
:103D700008820E98FFF788FC0E9D0E2029462B46E0
:103D8000285E1231303300280ADD00228A5E401E90
:103D900052009E5A891C761C00B29E520028F4DC08
:103DA000E8810D9804900E9803900399263048609E
:103DB000039808270546FF350C947535FF30E75FFB
:103DC000593006903A48079300260B9006980895BC
:103DD0000021415E801C0690099107987100445EA5
:103DE000072C1CDA0AA808A9019102900097224624
:103DF000099B0399049800F0F3FB07466846008D81
:103E000000280CD0701C00B20799072442005118FA
:103E10000C80401C891C00B20E28F9DB0895052C8B
:103E200001D0062C08D10B98019000952246099BE1
:103E30000399049800F028FB072C09D10B9808A9D6
:103E4000019100902246099B0399049800F074FBAD
:103E5000761C283536B20E2EB8DB6846008D002859
:103E600001D07F1E3FB20C98E92107810E9889008E
:103E70004218002069468882132081006C46142372
:103E8000E35E535014238918E35E4039CB63142357
:103E9000E35E8B631423001FE35E00B24B630028D4
:103EA000EBDA0FB0F0BD00008056000004590000AE
:103EB000C4510000F3B508460C467C3006218DB095
:103EC0000022491E04C009B20029FADA204622461F
:103ED0009830FF32D1322646A0664C36FE4800901C
:103EE000001484460392FD4804900D9902960C201C
:103EF000085E0D2740000190002013210025555F2A
:103F0000491E2B466B43921C181809B20029F5DA9A
:103F1000009B054600211D40002D07DD4010009D3F
:103F2000491C03462B4009B2002BF7DC6346C51A37
:103F30000B460F331BB2002D05DC002B03DB4000CA
:103F4000491E09B2F2E7049D4010A84201DB491C5A
:103F500009B201987F1E081A0B303080B61C3FB2A0
:103F6000002FC9DA204666300B250C210288801EFE
:103F70000023521BC35E12B2934200DA0280491E34
:103F800009B20029F2DA224640320C210520515EA6
:103F9000C043814200DA90810C21515E182018291B
:103FA00000DD908120466030052101908181FF2055
:103FB000953001539089FF21C01DB331085320462D
:103FC0000E254E30ED43182627460346683700215C
:103FD000415EA94201DA294602E0B14200DD3146E4
:103FE0000180801CB842F2D3BD480790A06E918931
:103FF0000180801C8446BB480690019826460C210F
:10400000FF36415E973635460B201E35C043009182
:1040100001211F889B1E00229A5E04929B1CBA1AE3
:1040200012B20593824200DA0246121A63461A80DF
:104030009B1C9C46049B059F9B181B183B801827C4
:104040004F43BA1812B2079F9646BA56009F059B77
:10405000BF183FB20097328072465700069A491C3B
:10406000D25B2A809B1CB61CAD1C09B20E29D0DB8A
:104070000199009888810D98418920466030009010
:104080008089081A001F20822046FFF7FDFA0D984C
:10409000029A80894000183003B20D204100555A21
:1040A000401EED1800B255520028F7DA0126F6033B
:1040B0000D20039F029A84461088273800B24310CF
:1040C000002B10DD3846132105882D04AD191D4144
:1040D0002D140580491E801C09B20029F4DA1188CC
:1040E0005800081A10806046401E00B2921C283703
:1040F00084460028E0DA0D9823464189009880899B
:10410000081A001F20822046123030330621009307
:104110000022825E491E52009D5A801C6D1C09B20D
:104120009D520029F4DA009808902046FF30D130E3
:104130000790069020464C30049001906830274646
:104140007C3709900A900D2000260C972546603593
:10415000029008990020085E891C089107280DDA52
:10416000688201980088E881079860670A98A067CC
:10417000204600F057FE1020285E00E00020388026
:10418000301806B20798BF1C283007900198801C91
:1041900001900A9810300A900298401E00B20290D6
:1041A0000028D6DA20461E300890009807900C9818
:1041B0000190069805900498039009980A901020A1
:1041C000205E07270B902EE008990020085E891ECC
:1041D0004200029208910799079B895A491E09B229
:1041E0009952019B9A5A059BB21A16B22822424351
:1041F000D21807290FDA6982039B0299595AE9817B
:10420000010162670A9809182046A16700F00AFEBA
:104210001020285E00E00020029A01998852301890
:104220007F1E06B23FB20B98864201DA002FCBDC2C
:104230007900081912300890009807900C980190A6
:10424000069805900498039009980A901020205E23
:104250000B902FE008990020085E891C089142000D
:1042600007990092895A079B491C09B29952019BF0
:104270009A5A059BB21A16B228224243D21807292D
:104280000FDA6982039B0099595AE981010162673B
:104290000A9809182046A16700F0C4FD1020285E86
:1042A00000E00020019A00995052301806B27F1C9D
:1042B0000B983FB2864201DD0F2FCBDBE78127460B
:1042C0000D9AFF37002301949537102052683D4620
:1042D00019461E35039207E00000FF7F237100009E
:1042E00044730000947400000422BA83019CE289A4
:1042F000AA830E22944600243C5F2E88221ABF1CFB
:10430000AD1C12B2002A0CDB3046D04018184C000D
:10431000039B491C18531020801A00B209B2864032
:1043200004E052429640F618001B00B26246521E4C
:1043300012B233B29446002ADDDA019A0A24B4326A
:104340000092019A7C3201920D9A145F0D22029420
:104350000492029C0F01A74239DA019A0024145FEB
:10436000009E202C01DA224600E0202220CEB44616
:104370003E46029FF61B26E082420FDB2026371ABC
:104380002E46FE409B198540101A02B24E0003983B
:10439000491C8353002309B2102011E02026B61ACD
:1043A000F540801A00B28540EA1813B2624620CA6E
:1043B000203C24B29446202C01DA224600E0202240
:1043C000029F0E01F61B002C01DD002ED4DB009AAB
:1043D00010320092019A921C0192049A521E12B25B
:1043E0000492002AB5DA0A4C002E0FDA10252A1A98
:1043F0002046104118184B00039A491CD05209B2AC
:10440000029E002310200A01921BF0D40FB0F0BDD1
:10441000FFFF0000F0B40346FF33613304241C5F48
:1044200000260625174F965F5D5FA1420CDC8E408B
:10443000601A05414800385A0540A819108098882C
:10444000401A9880F0BC7047A640B4460D4F6600F5
:10445000BE5B35406646AF1986690025755FDD8015
:10446000B61C8661081B00B287401021091A0D4155
:1044700044000448005B0540E81910809980F0BCB6
:1044800070470000B05A0000F0B583B0099D52009B
:104490005219203A1625555F0646FF3641360296D8
:1044A0005D432036EA130196B61C12B200965342C1
:1044B000361F0025089CB01E1BB2B64684460298E3
:1044C000868B01984788F61937B20F803E0401D5D4
:1044D0007F1C0F80009E0788378077463E880680C5
:1044E000604606883E800E88068009202688002EB9
:1044F00007D10E78F60709D0228000268E5F76104D
:104500000E80A41C2688002E02D009E02380F4E748
:104510000E78F6070ED0228000268E5F76100E8071
:10452000801EA41C00B20028E0DA6D1C022DC6DB40
:1045300003B0F0BD2380EFE7F0B583B0089D5200D3
:104540005519203D1622AA5E099C0646FF362468AE
:104550004136029620365A430196D213B61C12B247
:1045600000965342361F0025B01E1BB2B646844645
:104570000298868B01984788F61937B20F803E045F
:1045800001D57F1C0F80009E0788378077463E88C4
:104590000680604606883E800E88068009200E78D8
:1045A000F60718D0228000268E5FA41C76100E809D
:1045B000F60712D0228000268E5F801E7610A41C83
:1045C00000B20E800028EADA6D1C022DD0DB0998BB
:1045D000046003B0F0BD2380E5E72380EBE7000033
:1045E000FFB58AB08C46002760460397406800906C
:1045F0000C9E87491498B600006889590891814B30
:104600000C99814A595601910C99804C515605914B
:104610000C99490007910A99FF31613106910C9973
:104620004901091902910A9F089909913946002305
:10463000FF31613113AC8E460021615E002902DC3E
:104640000121039128E071468E883A46002E07D159
:1046500096693688CE809669B61C1022BE618A8023
:104660008A880626521E8A808E5F1641F207D20F74
:104670004A8159005B1809995918002A10D0022262
:104680008A56097813010907090F0B432188491E2F
:104690002180002BD0DC039909B200297ED106E0ED
:1046A00001228A56097813010906090FEDE75942DC
:1046B0000AB261460A816346009919610C995981D1
:1046C000544C079B0027E35E0993534B64465B5CA5
:1046D00024695B1C9E464B4B595C4B1E4900891E4E
:1046E000641809995143C9130EB271467143511AA6
:1046F0000AB22280A41E002A01D07F1C3FB25B1E9A
:104700001BB23246002BECDA61464F8010AA0C2116
:10471000515E3BB2994272DB002B3ED000276A46C5
:104720001782C91A10AA91810A9904228E46069905
:104730008A5E93420DDC06249F400C5FD21A14411E
:10474000364D5E00AD5B2C40E4196D462C828A80AC
:104750001FE09740314D5600CC88AD5B2C40E619E8
:104760007446A46975462488CC807446A469A41C48
:10477000AC619A1A12B2062596404D5F1024A41A15
:1047800025415700254AD25B1540AA196D462A8259
:104790008C805B1E012199400DB200E024E0009B5B
:1047A000019A00241C5F02996400095F9B1C002988
:1047B0000DD00D9C4C43211309B2002907D06E4641
:1047C0001024345F2C4201D1494209B26D1001809E
:1047D000521E801C12B2002AE3DC0599491E09B260
:1047E0000591002900DD1EE71499086015990398CA
:1047F000088010A90C20085E0EB0F0BDFFE7012173
:104800000391F1E7CA510000D2510000A059000005
:1048100084590000A05A0000DA510000B05A00008C
:10482000F0B587B014460E4605466B4601AA2146F0
:104830003046FFF76FF93046009A0199FFF764F8A8
:104840003046009A0199FFF7BDF80C203246FF214F
:10485000285EFF3240317532002846DD4B00D75EBE
:104860000741D7529B18203B1E27DF5F0741DF839C
:104870001C27DF5F07419F831A27DF5F07415F83A4
:104880001827DF5F07411F831627DF5F0741DF829D
:104890001427DF5F07419F821227DF5F07415F8296
:1048A0001027DF5F07411F820E27DF5F0741DF818F
:1048B0000C27DF5F07419F810A27DF5F07415F8188
:1048C0000827DF5F07411F810627DF5F0741DF8081
:1048D0000427DF5F07419F800227DF5F0741103910
:1048E00009B25F800029B9DA22E0002820DA4042CC
:1048F00000B24B00D75A8740D7529B18203BDF8B22
:104900008740DF839F8B87409F835F8B87405F83D8
:104910001F8B87401F83DF8A8740DF829F8A874003
:104920009F825F8A8740083909B25F820029E0DAF6
:104930001C35AD2080003018844600903548059025
:10494000000704900120C003039000042C23029070
:10495000314A324932489F260195B6466746BF1E06
:104960000026BC46BE5F491C0F785E43FB18401E04
:1049700007781BB2D21B0027EF5F12B25743BE1954
:10498000059FAD1CBE4201DD264E08E0049FBE42DD
:1049900001DA029E00E0F600039FF6193614268025
:1049A0007646761E36B2A41CB646002ED6DA9F2670
:1049B000B64667460026BE5FBF1CBC46491C0F7842
:1049C0005E43FB18401E0778AD1ED21B0027EF5F29
:1049D00012B25743F61B059F1BB2BE4201DD114EBA
:1049E00008E0049FBE4201DA029E00E0F600039F49
:1049F000F619361426807646761E36B2A41CB646C4
:104A0000002ED6DAFF22413200990198FBF7B6FB5F
:104A100007B0F0BDFFFFFF0FAF460000E1510000FF
:104A200022530000FF7F0000F7B58446FF310120CC
:104A300094B0D13180036546FF355135F34B0022E8
:104A400003909F201C46009502910190009800273A
:104A50000026C75F9E5F801C00907E43A41E002737
:104A6000AD1E0020E75F285E9B1C4743F019039EA4
:104A70008019C01300B20880891C002801DA404266
:104A800000B2904200DD02460198401E00B2019043
:104A90000028DBDA05251698ED01451900959F25BC
:104AA00001950026865F9B1E00255D5F009F754374
:104AB000BF1E00260097BE5F0027E75F801C77437C
:104AC000039EED1BAD19ED132DB20D80A41C891CA6
:104AD000002D01DA6D422DB2954200DD2A46019D7E
:104AE0006D1E2DB20195002DDBDA63461033FF24D5
:104AF0004034169D20464100401E6E5A00B25E5260
:104B00000028F8DAC248824203DB00216046818136
:104B100019E0FF20B730824202DA501C00B200E0F8
:104B20001046BC494843011536D0012300209B03A1
:104B3000994205DA4900401C09B200B29942F9DBFA
:104B4000801F614688810298002523465900415EF6
:104B5000002901DA494209B25B1E6D181BB2002B15
:104B6000F4DAE811824204DA604680896146401E28
:104B70008881204664460C23E35EA74A0299002BF5
:104B80000EDD44000D5B16569D40AD19401E00B26F
:104B90000D530028F5DA1BE0092160468181D2E738
:104BA000002B0CDA5B421DB24300CC5E16562C4142
:104BB000A419401E00B2CC520028F5DA08E04300E8
:104BC0001556CC5A401E641900B2CC520028F6DAB1
:104BD00002980090FF2041301699844601200290EF
:104BE00004200191139060464000029F019D009AAD
:104BF0000390039928460D1829460023D35E921C82
:104C00000024145F891E1E19761006801B1B5B1082
:104C1000921C801C0B808842EFD37F1E3FB2002F76
:104C2000E7DC009A019800906046401084460298A4
:104C30000192400000B202901398401E00B21390FF
:104C40000028D0DA0120800384467448009920258A
:104C5000029002980023002400260C5F865F022742
:104C6000744302268E5FC75F5B1C7E4334190426A3
:104C700004278E5FC75F1BB27E43341906260627C2
:104C80008E5FC75F7E433419082608278E5FC75F93
:104C90007E4334190A260A278E5FC75F7E43341984
:104CA0000C260C278E5FC75F7E4334190E260E2715
:104CB0008E5FC75F7E433419102610278E5FC75F53
:104CC0007E433419122612278E5FC75F14307E434D
:104CD00034196444E4131480921C0A2BBBDB6D1E50
:104CE00014312DB2002DB4DC009B019A9F2081006D
:104CF000401E545800B25C500028F8DA4848102191
:104D0000089002911420890204221392009A0692BC
:104D1000019A0492029A0D924208520040001292A7
:104D20000390069A1298039B801884460398801873
:104D3000069004981B181C460493089B1B680026C9
:104D4000965F0796921C0027D75F0C976546002652
:104D5000AE5F0596AD1C0027EF5FAD1CAC460A9711
:104D600000255D5F9B1C0027DF5F9B1C00269E5F6C
:104D7000AE4609969B1C00255D5F0B95079E754608
:104D80007543059E921C7E43AD1B6D18ED13058087
:104D9000079E75467743059E801C75437D196D18E7
:104DA000ED13A61E35800C9F099E0B9D7E430A9F26
:104DB0009B1C7D4375196D18ED1305800C9F0B9D91
:104DC000099E7D430A9F801C7E43AD1B6D18ED1329
:104DD000241F2580A042B2D30D98401E00B20D9032
:104DE00000289EDC019A00980092029A01905210CD
:104DF0000292089A0398121D0892139A00B2521E4A
:104E000012B21392002A81DA17B0F0BDE86F0000E9
:104E1000B0360000E64A0000287100006872000009
:104E200030730000F0B5014693B060311223049155
:104E3000CB5E0293456F806F079050485149C25C2A
:104E40004F480026C05C009058000B90085E049903
:104E50000E23CB5E59004C4B595E48430121090398
:104E6000401840138107801000B21190890F474805
:104E7000029B1291C05C46498446401C1090002061
:104E8000039020208646980009580E914149085801
:104E90000D9041480190414806920590029F01986B
:104EA0000022C0570C900B9F0598009CC05F1146D4
:104EB000134608900020285E0A90002801DA40423C
:104EC00000B2119F47430997129F7843400000B2F8
:104ED0000C9F4010381800B287100F97089F099850
:104EE00038180F9FC019401300B200280CD05B1C6B
:104EF00049000A9F1BB209B2002F01DD491C09B20B
:104F00006746604500DD3846109F641E7A431018DE
:104F1000AD1C24B202B2002CCCDC0D985400045B12
:104F20000E988056039AC018121812B29C40039231
:104F30007246101A611800B2002803DB814076180F
:104F400086460EE040420A460241079BB2181A60AC
:104F5000079A121D07922022101A00B2814086463D
:104F60000E460698401E00B20690002896DC079870
:104F7000066004990398088213B0F0BD906E00009B
:104F8000886E00006C7700007C770000986E00004F
:104F90003477000050770000A06E0000FC7700001E
:104FA00001460020C043704730B504460D462046F8
:104FB000FEF732FA204630BD1A48FEF74DFA0320BC
:104FC000FCF72AF8FDF7A6FE002801D100BFFEE796
:104FD000FCF71AFFFCF758FAFDF756F8FEF78CF9C4
:104FE000FCF7C6FBFBF70EFE1AE00F480078042121
:104FF0000840002806D0FBF729FE00280ED1FBF759
:1050000073FF0BE00848007808210840002805D00D
:10501000FBF70AFE002801D1FBF74CFFFCF7CEFAA4
:10502000E3E70000006CDC0200040020152F000004
:10503000000000003D3600000000000000000000FD
:105040000000000000000000000000000000000060
:10505000E11100000100002001000100E111000049
:105060000100001001000101E111000001000040F9
:1050700001000102E1110000020000200200010015
:10508000E11100000200001002000101E111000026
:105090000200004002000102E111000003000020B4
:1050A00004000100E11100000300001004000101F0
:1050B000E11100000300004004000102E1110000C2
:1050C0000400002008000100E111000004000010AD
:1050D00008000101E1110000040000400800010285
:1050E000E11100000500002040000100E111000076
:1050F0000500001040000101E11100000500004022
:1051000040000102E11100000600002080000100C3
:10511000E11100000600001080000101E111000013
:1051200006000040800001020000000000000000B6
:10513000000000000306000076860000EC0C010071
:1051400076860000F67E0000DE9A00002E640000E5
:105150005CC800002E6400009A5E0000203200004F
:1051600054570000A8AE00005457000076520000CB
:10517000DA0A000040008000C0008001000000004A
:10518000120000002000000039000000660000004E
:10519000B60000004301000001020000D40200003C
:1051A00000040000A6050000FB070000A60C00009C
:1051B000803E0000008000000000000000000000B1
:1051C0000000EE02A1160020825A02020204040529
:1051D00005010A0A0A05050404140D090604030260
:1051E00001015959585959595958595958595958E3
:1051F000595958595858595858595858585858582A
:10520000575858575857585757575757575757562B
:105210005756565657555656565556555555555533
:105220005455545454545454535354535253535246
:1052300052525252525151515151505150504F505F
:105240004F4F4F4F4F4E4E4E4E4D4D4E4C4D4C4D81
:105250004C4B4C4B4B4B4B4A4A4A494A49494849AB
:1052600048484748474746474645464545454444DC
:105270004443444342434242414141414040404013
:105280003F3E3F3E3E3E3D3D3C3D3C3B3C3B3A3B52
:105290003A393A3938393838373736373635363596
:1052A00034343434333332323231313130302F30E0
:1052B0002E2F2E2E2D2D2C2C2C2C2B2A2B292A292F
:1052C0002928282827262726252624252423242282
:1052D000232221212121201F1F1F1E1E1E1D1D1CD8
:1052E0001C1B1B1B1A1A1919191818171716161632
:1052F000151514141313131212111111100F0F0F8F
:105300000E0E0E0D0C0D0B0C0B0A0A0A09080907EC
:10531000080706060605050503040303020201014A
:105320000000010000000100000101010100000077
:105330000101010101000001010100010100000063
:105340000100000100010000010001000000010057
:105350000100000001010101010000010000000046
:105360000100000001000001010101010100010034
:105370000001010000010000000100010000010126
:105380000001000101010100000000010101010113
:105390000000000100010000000101010000010106
:1053A00001010100000101010100010101000101F1
:1053B00001000000000000000100010101010000E7
:1053C00000000101000100000100000100000001D7
:1053D00001000001010101000000000001010101C4
:1053E00001000001010001010000010101000101B3
:1053F00000010001000001010101010100010001A3
:105400000101010001010100010101000101010090
:105410000100010100000100000100010001010084
:105420000100010001010100010001000101010171
:105430000001000000010000000101000000010067
:105440000001000101000101000001010001010053
:105450000101010101010001010101000100000041
:105460000100D87204706E6A39629957D14A313C92
:10547000162CE51A0A0904709957162CF6F6CFC3B4
:10548000C79D288D92952FB51BE56E6A162CEAD321
:1054900092959295EAD3162C6E6A6E6A162C396232
:1054A000F6F6929567A8E51A0470D14AEAD3288DDA
:1054B000CFC39957CFC39295E51AD8720A09FC8FCA
:1054C000EAD33962D14AD14AC79DEAD304700A09A6
:1054D000288DE51A6E6ACFC367A8313C288D162C3B
:1054E000D14AFC8FE51A995792950A093962162C10
:1054F00092956E6AEAD3EAD36E6A9295162C162CB0
:105500009295E51A2FB56E6A288D3962CFC30A09C4
:10551000162C67A804700A091BE5162CCFC3D14AC4
:1055200067A8396292950470288D0000D05A000057
:10553000F85A0000485B0000E85B0000285D0000AE
:10554000FC04FBFE00FC0602FEFCFD030000FE0462
:10555000000003FA08050405F800FE0000FD030042
:10556000000001FFFE000002FEFBFE0302FFFFFA47
:105570000301F90404000104010001FBFF01FA002A
:10558000FFFF0300FE0102FC000900FD0101010014
:10559000FDFEFFFCFE000502FD0500FE040400FA0E
:1055A000FC02000000FFFFFE0006010000FF00FCFF
:1055B000FF00FC01FFFB0001020400F8FC00FEFEFE
:1055C0000205FDFF01FC000000FFFD00FBFC00FEEA
:1055D0000007010005FEFF0202FE0307FD0401FCB7
:1055E000000003F9FB00000400FEFF00FB000200C6
:1055F0000B05FF000202FEFE0504FD0100FE010393
:105600000200010000000506FEFF0002030200FD8B
:10561000040500FF000301FEFDFEFF02FFFFFEF98F
:105620000406FBFAFDFC0002FBFE0300000002FE84
:10563000FC030301000004FF080D0102000200FF4B
:1056400004FD0100FF030000FB000602040502FF49
:10565000FF0306010102FC00FFFAFEFE0201020642
:105660000200FEFE00FF02000003FE01030102FF34
:10567000FE0202FC0000FD00FCFD0607020200FD28
:10568000000000000000000000000000000000001A
:10569000000000000000000000000000000000000A
:1056A00000000000000000000000000000000102F7
:1056B000030405060708090A0BF4F5F6F8F7F9FAEA
:1056C000F30CFBFC000DFDF2FE0EFF0FF110F011CC
:1056D000EF1213141516EEEDECEBEAE901020304E8
:1056E00005060708F6F7F8F5F9FA09FB0AF4FC0BCA
:1056F000F3FD0CFE0DF2FF0E0FF10010F011EF1292
:10570000EE13141516EDECEBEAE9010203040506AD
:105710000708090AF40BF5F3F6F70CF2F8F9F1FAB9
:105720000DFBF0FC0EEF0FFD10EEFE1112EDFF135E
:10573000EC14001516EBEAE9010203040506F5F680
:1057400007F408F709F3F20AF8F1F00BF90CEFFA95
:105750000D0EEE0FFBFC1011FDFEED12FF13EC140D
:10576000151600EBEAE9010203040506F4F5F30758
:1057700008F2F6090AF1F70BF80CF00DF9FAEF0E42
:10578000FBEE0FFC10ED11FDEC12FE13EB140015F7
:1057900016FFEAE9010203040506F507F4F6F3F73C
:1057A0000809F2F80AF1F90BF00CFAEF0D0EFB0FF5
:1057B000EE10FC11FDED12FEEC13FF14001516EBBC
:1057C000EAE90102030405F406F5F6F3F70708F227
:1057D00009F8F10AF9F00BFA0CEF0DFBEE0E0FFCD5
:1057E000ED1011FDEC121314151600FEFFEBEAE9A3
:1057F0000102030405F406F3F5F607F208F709F1D0
:10580000F80AF9F00B0CFAEFFB0D0E0FEEFCED10A1
:10581000FD1112FEEC1314151600FFEBEAE901026C
:1058200003040506F5F6F4F70708F3F809F2F90A98
:10583000FAF10B0CFBF00D0EEF0FFC1011EE12FD48
:10584000FE13FF00ED14EC1516EBEAE90102030468
:105850000506F507F6F4F708F8F309F90AF2FA0B6A
:10586000F10CFB0DF0FC0E0FEFFDEE1011EDFE1232
:10587000EC13FF14151600EBEAE90102030405F42A
:1058800006F50708F6F3F709F8F20AF90BF1FA0C36
:10589000FB0DFCF00E0FFDEF1011EEFE12EDFF13ED
:1058A000EC14EB151600EAE90102030405F4F30613
:1058B000F507F208F609F1F7F80AF9F00BFA0CFB14
:1058C000EF0D0EEE0FFC10ED11FD12FE13FFEC14A8
:1058D000151600EBEAE901020304F405F5F306F2FC
:1058E000F60708F1F709F00AF8EF0B0CF9EEFA0DDC
:1058F0000EFB0FEDFC10EC11121314151600FFFD3A
:10590000FEEBEAE9000000000000000000000000DB
:105910000000000000000000000000000000000087
:105920000000000000000000000000000000000077
:105930000100010001000100020003000400060054
:1059400008000B001000170020002D0040005B0035
:105950008000B50000016A010002D4020004A8051D
:105960000008500B0010A1160020412D0040825A63
:105970000000000000000000000000000000000027
:1059800000000000A85F0000C4610000DB620000AE
:10599000686300007D690000ED6B00002A6E000066
:1059A000000046062F0CEA11A1174E1DED22A62875
:1059B0004B2EEC339039123F9E44974B0000000071
:1059C0000000B508F5100119172123292731FC38EB
:1059D0002141EC4900000000000000000000000030
:1059E0000000EF0B6E17E1221E2E58391045000003
:1059F00000000000000000000000000000000000A7
:105A0000000019100020E32FC23F0000000000003A
:105A10000000000000000000000000000000000086
:105A2000000025153F2BBB3F0000000000000000D8
:105A30000000000000000000000000000000000066
:105A40000000811ADC3700000000000000000000A8
:105A50000000000000000000000000000000000046
:105A600000006C1F000000000000000000000000AB
:105A70000000000000000000000000000000000026
:105A80000000531F000000000000000000000000A4
:105A90000000000000000000000000000000000006
:105AA0002509CD0C4A129A190120AB2A0140014068
:105AB00000000100030007000F001F003F007F00EF
:105AC000FF00FF01FF03FF07FF0FFF1FFF3FFF7FE7
:105AD000ED472DFD7B478AF79946F5F1474576EC72
